{
  "contractName": "Election",
  "abi": [
    {
      "inputs": [],
      "payable": false,
      "stateMutability": "nonpayable",
      "type": "constructor"
    },
    {
      "anonymous": false,
      "inputs": [
        {
          "indexed": false,
          "internalType": "address",
          "name": "_giright",
          "type": "address"
        }
      ],
      "name": "girightEvent",
      "type": "event"
    },
    {
      "anonymous": false,
      "inputs": [
        {
          "indexed": true,
          "internalType": "uint256",
          "name": "_candidateId",
          "type": "uint256"
        }
      ],
      "name": "votedEvent",
      "type": "event"
    },
    {
      "constant": true,
      "inputs": [
        {
          "internalType": "uint256",
          "name": "",
          "type": "uint256"
        }
      ],
      "name": "candidates",
      "outputs": [
        {
          "internalType": "uint256",
          "name": "id",
          "type": "uint256"
        },
        {
          "internalType": "string",
          "name": "name",
          "type": "string"
        },
        {
          "internalType": "uint256",
          "name": "voteCount",
          "type": "uint256"
        }
      ],
      "payable": false,
      "stateMutability": "view",
      "type": "function"
    },
    {
      "constant": true,
      "inputs": [],
      "name": "candidatesCount",
      "outputs": [
        {
          "internalType": "uint256",
          "name": "",
          "type": "uint256"
        }
      ],
      "payable": false,
      "stateMutability": "view",
      "type": "function"
    },
    {
      "constant": true,
      "inputs": [],
      "name": "chairperson",
      "outputs": [
        {
          "internalType": "address",
          "name": "",
          "type": "address"
        }
      ],
      "payable": false,
      "stateMutability": "view",
      "type": "function"
    },
    {
      "constant": true,
      "inputs": [
        {
          "internalType": "address",
          "name": "",
          "type": "address"
        }
      ],
      "name": "rightvote",
      "outputs": [
        {
          "internalType": "bool",
          "name": "",
          "type": "bool"
        }
      ],
      "payable": false,
      "stateMutability": "view",
      "type": "function"
    },
    {
      "constant": true,
      "inputs": [
        {
          "internalType": "address",
          "name": "",
          "type": "address"
        }
      ],
      "name": "voters",
      "outputs": [
        {
          "internalType": "bool",
          "name": "",
          "type": "bool"
        }
      ],
      "payable": false,
      "stateMutability": "view",
      "type": "function"
    },
    {
      "constant": false,
      "inputs": [
        {
          "internalType": "string",
          "name": "_name",
          "type": "string"
        }
      ],
      "name": "addCandidate",
      "outputs": [],
      "payable": false,
      "stateMutability": "nonpayable",
      "type": "function"
    },
    {
      "constant": false,
      "inputs": [
        {
          "internalType": "uint256",
          "name": "_candidateId",
          "type": "uint256"
        }
      ],
      "name": "vote",
      "outputs": [],
      "payable": false,
      "stateMutability": "nonpayable",
      "type": "function"
    },
    {
      "constant": false,
      "inputs": [
        {
          "internalType": "address",
          "name": "_giright",
          "type": "address"
        }
      ],
      "name": "giright",
      "outputs": [],
      "payable": false,
      "stateMutability": "nonpayable",
      "type": "function"
    }
  ],
  "bytecode": "0x608060405234801561001057600080fd5b5033600460006101000a81548173ffffffffffffffffffffffffffffffffffffffff021916908373ffffffffffffffffffffffffffffffffffffffff1602179055506100966040518060400160405280600581526020017f426964656e0000000000000000000000000000000000000000000000000000008152506100df60201b60201c565b6100da6040518060400160405280600581526020017f5472756d700000000000000000000000000000000000000000000000000000008152506100df60201b60201c565b61025a565b3373ffffffffffffffffffffffffffffffffffffffff16600460009054906101000a900473ffffffffffffffffffffffffffffffffffffffff1673ffffffffffffffffffffffffffffffffffffffff161461013957600080fd5b6003600081548092919060010191905055506040518060600160405280600354815260200182815260200160008152506002600060035481526020019081526020016000206000820151816000015560208201518160010190805190602001906101a49291906101b5565b506040820151816002015590505050565b828054600181600116156101000203166002900490600052602060002090601f016020900481019282601f106101f657805160ff1916838001178555610224565b82800160010185558215610224579182015b82811115610223578251825591602001919060010190610208565b5b5090506102319190610235565b5090565b61025791905b8082111561025357600081600090555060010161023b565b5090565b90565b610950806102696000396000f3fe608060405234801561001057600080fd5b50600436106100885760003560e01c8063462e91ec1161005b578063462e91ec146101d85780637047cb8c1461029357806373b57e2f146102ef578063a3ec138d1461033357610088565b80630121b93f1461008d5780632d35a8a2146100bb5780632e4176cf146100d95780633477ee2e14610123575b600080fd5b6100b9600480360360208110156100a357600080fd5b810190808035906020019092919050505061038f565b005b6100c361055b565b6040518082815260200191505060405180910390f35b6100e1610561565b604051808273ffffffffffffffffffffffffffffffffffffffff1673ffffffffffffffffffffffffffffffffffffffff16815260200191505060405180910390f35b61014f6004803603602081101561013957600080fd5b8101908080359060200190929190505050610587565b6040518084815260200180602001838152602001828103825284818151815260200191508051906020019080838360005b8381101561019b578082015181840152602081019050610180565b50505050905090810190601f1680156101c85780820380516001836020036101000a031916815260200191505b5094505050505060405180910390f35b610291600480360360208110156101ee57600080fd5b810190808035906020019064010000000081111561020b57600080fd5b82018360208201111561021d57600080fd5b8035906020019184600183028401116401000000008311171561023f57600080fd5b91908080601f016020809104026020016040519081016040528093929190818152602001838380828437600081840152601f19601f820116905080830192505050505050509192919290505050610649565b005b6102d5600480360360208110156102a957600080fd5b81019080803573ffffffffffffffffffffffffffffffffffffffff16906020019092919050505061071f565b604051808215151515815260200191505060405180910390f35b6103316004803603602081101561030557600080fd5b81019080803573ffffffffffffffffffffffffffffffffffffffff16906020019092919050505061073f565b005b6103756004803603602081101561034957600080fd5b81019080803573ffffffffffffffffffffffffffffffffffffffff169060200190929190505050610856565b604051808215151515815260200191505060405180910390f35b600160003373ffffffffffffffffffffffffffffffffffffffff1673ffffffffffffffffffffffffffffffffffffffff16815260200190815260200160002060009054906101000a900460ff166103e557600080fd5b6000803373ffffffffffffffffffffffffffffffffffffffff1673ffffffffffffffffffffffffffffffffffffffff16815260200190815260200160002060009054906101000a900460ff161561043b57600080fd5b60008111801561044d57506003548111155b61045657600080fd5b60016000803373ffffffffffffffffffffffffffffffffffffffff1673ffffffffffffffffffffffffffffffffffffffff16815260200190815260200160002060006101000a81548160ff0219169083151502179055506000600160003373ffffffffffffffffffffffffffffffffffffffff1673ffffffffffffffffffffffffffffffffffffffff16815260200190815260200160002060006101000a81548160ff0219169083151502179055506002600082815260200190815260200160002060020160008154809291906001019190505550807ffff3c900d938d21d0990d786e819f29b8d05c1ef587b462b939609625b684b1660405160405180910390a250565b60035481565b600460009054906101000a900473ffffffffffffffffffffffffffffffffffffffff1681565b6002602052806000526040600020600091509050806000015490806001018054600181600116156101000203166002900480601f0160208091040260200160405190810160405280929190818152602001828054600181600116156101000203166002900480156106395780601f1061060e57610100808354040283529160200191610639565b820191906000526020600020905b81548152906001019060200180831161061c57829003601f168201915b5050505050908060020154905083565b3373ffffffffffffffffffffffffffffffffffffffff16600460009054906101000a900473ffffffffffffffffffffffffffffffffffffffff1673ffffffffffffffffffffffffffffffffffffffff16146106a357600080fd5b60036000815480929190600101919050555060405180606001604052806003548152602001828152602001600081525060026000600354815260200190815260200160002060008201518160000155602082015181600101908051906020019061070e929190610876565b506040820151816002015590505050565b60016020528060005260406000206000915054906101000a900460ff1681565b3373ffffffffffffffffffffffffffffffffffffffff16600460009054906101000a900473ffffffffffffffffffffffffffffffffffffffff1673ffffffffffffffffffffffffffffffffffffffff161461079957600080fd5b60018060008373ffffffffffffffffffffffffffffffffffffffff1673ffffffffffffffffffffffffffffffffffffffff16815260200190815260200160002060006101000a81548160ff0219169083151502179055507f471f0ceff64dde17367d3f2dfb6384682ea66d6be09bd4af84617759c146943381604051808273ffffffffffffffffffffffffffffffffffffffff1673ffffffffffffffffffffffffffffffffffffffff16815260200191505060405180910390a150565b60006020528060005260406000206000915054906101000a900460ff1681565b828054600181600116156101000203166002900490600052602060002090601f016020900481019282601f106108b757805160ff19168380011785556108e5565b828001600101855582156108e5579182015b828111156108e45782518255916020019190600101906108c9565b5b5090506108f291906108f6565b5090565b61091891905b808211156109145760008160009055506001016108fc565b5090565b9056fea265627a7a72315820e890374ec359d7342ee1dd922b57276f0b10b7dfd2d8bdff52bd59995596c7cf64736f6c63430005100032",
  "source": "pragma solidity ^0.5.12;\n\ncontract Election{\n    //投票的选项\n    struct Candidate{\n        uint id;\n        string name;\n        uint voteCount;\n    }\n\n    mapping(address => bool) public voters;\n    //授权用户\n    mapping(address => bool) public rightvote;\n    mapping(uint => Candidate) public candidates;\n    \n    uint public candidatesCount;\n\n     address public chairperson;\n\n    event votedEvent(\n        uint indexed _candidateId\n    );\n    //事件\n     event girightEvent(\n        address _giright\n    );\n    constructor() public {\n        chairperson = msg.sender;\n        addCandidate(\"Biden\");\n        addCandidate(\"Trump\"); \n    }\n\n   //增加一个投票的选项\n    function addCandidate (string memory _name) public{\n         require(chairperson==msg.sender);\n        candidatesCount ++;\n        candidates[candidatesCount] = Candidate(candidatesCount, _name, 0);\n    }\n\n    function vote (uint _candidateId) public{\n        //判断授权用户\n        require(rightvote[msg.sender]);\n\n        require(!voters[msg.sender]);\n        require(_candidateId > 0 && _candidateId <= candidatesCount);\n        voters[msg.sender] = true;\n        //结束授权\n        rightvote[msg.sender] = false;\n        candidates[_candidateId].voteCount ++;\n        emit votedEvent(_candidateId);\n\n    }\n\n//授权函数\n    function giright (address _giright) public{\n        require(chairperson==msg.sender);\n        rightvote[_giright] = true;\n        \n        emit girightEvent(_giright);\n\n    }\n}\n",
  "sourcePath": "C:/Users/zhj02/Desktop/以太坊美国大选投票系统/contracts/Election.sol",
  "compiler": {
    "name": "solc",
    "version": "0.5.16+commit.9c3226ce.Emscripten.clang"
  },
  "schemaVersion": "3.3.2",
  "updatedAt": "2020-11-11T09:49:28.877Z",
  "networkType": "ethereum",
  "devdoc": {
    "methods": {}
  },
  "userdoc": {
    "methods": {}
  }
}